{
  "contractName": "EducationToken",
  "abi": [
    {
      "constant": true,
      "inputs": [],
      "name": "name",
      "outputs": [
        {
          "name": "",
          "type": "string"
        }
      ],
      "payable": false,
      "stateMutability": "view",
      "type": "function"
    },
    {
      "constant": true,
      "inputs": [],
      "name": "description",
      "outputs": [
        {
          "name": "",
          "type": "string"
        }
      ],
      "payable": false,
      "stateMutability": "view",
      "type": "function"
    },
    {
      "inputs": [
        {
          "name": "_name",
          "type": "string"
        },
        {
          "name": "_description",
          "type": "string"
        }
      ],
      "payable": false,
      "stateMutability": "nonpayable",
      "type": "constructor"
    },
    {
      "constant": false,
      "inputs": [
        {
          "name": "_description",
          "type": "string"
        }
      ],
      "name": "createToken",
      "outputs": [],
      "payable": false,
      "stateMutability": "nonpayable",
      "type": "function"
    },
    {
      "constant": false,
      "inputs": [
        {
          "name": "_to",
          "type": "address"
        },
        {
          "name": "_tokenId",
          "type": "uint256"
        }
      ],
      "name": "tranfer",
      "outputs": [],
      "payable": false,
      "stateMutability": "nonpayable",
      "type": "function"
    }
  ],
  "bytecode": "0x608060405234801561001057600080fd5b50604051610746380380610746833981018060405281019080805182019291906020018051820192919050505081600090805190602001906100539291906100b3565b50806001908051906020019061006a9291906100b3565b5033600260006101000a81548173ffffffffffffffffffffffffffffffffffffffff021916908373ffffffffffffffffffffffffffffffffffffffff1602179055505050610158565b828054600181600116156101000203166002900490600052602060002090601f016020900481019282601f106100f457805160ff1916838001178555610122565b82800160010185558215610122579182015b82811115610121578251825591602001919060010190610106565b5b50905061012f9190610133565b5090565b61015591905b80821115610151576000816000905550600101610139565b5090565b90565b6105df806101676000396000f300608060405260043610610062576000357c0100000000000000000000000000000000000000000000000000000000900463ffffffff16806306fdde031461006757806345576f94146100f75780637284e41614610160578063c610bb07146101f0575b600080fd5b34801561007357600080fd5b5061007c61023d565b6040518080602001828103825283818151815260200191508051906020019080838360005b838110156100bc5780820151818401526020810190506100a1565b50505050905090810190601f1680156100e95780820380516001836020036101000a031916815260200191505b509250505060405180910390f35b34801561010357600080fd5b5061015e600480360381019080803590602001908201803590602001908080601f01602080910402602001604051908101604052809392919081815260200183838082843782019150505050505091929192905050506102db565b005b34801561016c57600080fd5b506101756103fc565b6040518080602001828103825283818151815260200191508051906020019080838360005b838110156101b557808201518184015260208101905061019a565b50505050905090810190601f1680156101e25780820380516001836020036101000a031916815260200191505b509250505060405180910390f35b3480156101fc57600080fd5b5061023b600480360381019080803573ffffffffffffffffffffffffffffffffffffffff1690602001909291908035906020019092919050505061049a565b005b60008054600181600116156101000203166002900480601f0160208091040260200160405190810160405280929190818152602001828054600181600116156101000203166002900480156102d35780601f106102a8576101008083540402835291602001916102d3565b820191906000526020600020905b8154815290600101906020018083116102b657829003601f168201915b505050505081565b6102e361059f565b6000600260009054906101000a900473ffffffffffffffffffffffffffffffffffffffff1673ffffffffffffffffffffffffffffffffffffffff163373ffffffffffffffffffffffffffffffffffffffff161415156103aa576040517f08c379a00000000000000000000000000000000000000000000000000000000081526004018080602001828103825260168152602001807f43616c6c6572206e6f7420617574686f72697a65642e0000000000000000000081525060200191505060405180910390fd5b6020604051908101604052804281525091506001600583908060018154018082558091505090600182039060005260206000200160009091929091909150600082015181600001555050039050505050565b60018054600181600116156101000203166002900480601f0160208091040260200160405190810160405280929190818152602001828054600181600116156101000203166002900480156104925780601f1061046757610100808354040283529160200191610492565b820191906000526020600020905b81548152906001019060200180831161047557829003601f168201915b505050505081565b6104a53383836104a9565b5050565b600460008473ffffffffffffffffffffffffffffffffffffffff1673ffffffffffffffffffffffffffffffffffffffff1681526020019081526020016000206000815480929190600190039190505550600460008373ffffffffffffffffffffffffffffffffffffffff1673ffffffffffffffffffffffffffffffffffffffff16815260200190815260200160002060008154809291906001019190505550816003600083815260200190815260200160002060006101000a81548173ffffffffffffffffffffffffffffffffffffffff021916908373ffffffffffffffffffffffffffffffffffffffff160217905550505050565b6020604051908101604052806000815250905600a165627a7a72305820d1cded3e3682dbf53b2e7df16d15451d1630f10610cda6c6f79f8deb198565270029",
  "source": "pragma solidity ^0.4.20;\r\n\r\n\r\ncontract EducationToken {\r\n\r\n    string public name;\r\n    string public description;\r\n    address private owner;\r\n\r\n    modifier onlyOwner {\r\n        require(msg.sender == owner, \"Caller not authorized.\");\r\n        _;\r\n    }\r\n\r\n    struct TokenInfo{\r\n        uint256 date;\r\n    }\r\n    constructor(string _name, string _description) public {\r\n        name = _name;\r\n        description = _description;\r\n        owner = msg.sender;\r\n    }\r\n    \r\n    mapping(uint256 => address) private tokenIdToOwner;\r\n    mapping(address => uint256) private ownershipCount;\r\n    TokenInfo[] tokens;\r\n\r\n    function createToken(string _description) public onlyOwner {\r\n        TokenInfo memory tok = TokenInfo({\r\n            date: block.timestamp\r\n        });\r\n\r\n        uint256 newTokenId = tokens.push(tok) - 1;\r\n\r\n        // _transfer(address(0), _to, newTokenId);\r\n    }\r\n\r\n    function tranfer(address _to, uint256 _tokenId) public {\r\n        _transfer(msg.sender, _to, _tokenId);\r\n    }\r\n\r\n    function _transfer(address _from, address _to, uint256 _tokenId) private {\r\n        ownershipCount[_from]--;\r\n        ownershipCount[_to]++;\r\n\r\n        tokenIdToOwner[_tokenId] = _to;\r\n    }\r\n}",
  "sourcePath": "D:\\Projects\\Ethereum\\hackathon\\contracts\\EducationToken.sol",
  "compiler": {
    "name": "solc",
    "version": "0.4.24+commit.e67f0147.Emscripten.clang"
  },
  "schemaVersion": "2.0.1",
  "updatedAt": "2018-09-22T21:57:18.773Z"
}