{
  "contractName": "Identity",
  "abi": [
    {
      "inputs": [
        {
          "name": "_name",
          "type": "string"
        },
        {
          "name": "_cui",
          "type": "string"
        },
        {
          "name": "_bornDate",
          "type": "string"
        }
      ],
      "payable": false,
      "stateMutability": "nonpayable",
      "type": "constructor"
    },
    {
      "anonymous": false,
      "inputs": [],
      "name": "identityCreatedEvent",
      "type": "event"
    },
    {
      "constant": true,
      "inputs": [],
      "name": "getName",
      "outputs": [
        {
          "name": "",
          "type": "string"
        }
      ],
      "payable": false,
      "stateMutability": "view",
      "type": "function"
    },
    {
      "constant": true,
      "inputs": [],
      "name": "getCui",
      "outputs": [
        {
          "name": "",
          "type": "string"
        }
      ],
      "payable": false,
      "stateMutability": "view",
      "type": "function"
    },
    {
      "constant": true,
      "inputs": [],
      "name": "getBornDate",
      "outputs": [
        {
          "name": "",
          "type": "string"
        }
      ],
      "payable": false,
      "stateMutability": "view",
      "type": "function"
    },
    {
      "constant": false,
      "inputs": [
        {
          "name": "_newAddress",
          "type": "address"
        }
      ],
      "name": "authorizeAccount",
      "outputs": [],
      "payable": false,
      "stateMutability": "nonpayable",
      "type": "function"
    },
    {
      "constant": true,
      "inputs": [
        {
          "name": "_address",
          "type": "address"
        }
      ],
      "name": "isAuthorized",
      "outputs": [
        {
          "name": "",
          "type": "bool"
        }
      ],
      "payable": false,
      "stateMutability": "view",
      "type": "function"
    },
    {
      "constant": false,
      "inputs": [
        {
          "name": "_newAddress",
          "type": "address"
        }
      ],
      "name": "deauthorizeAccount",
      "outputs": [],
      "payable": false,
      "stateMutability": "nonpayable",
      "type": "function"
    }
  ],
  "bytecode": "0x608060405234801561001057600080fd5b50604051610bae380380610bae833981018060405281019080805182019291906020018051820192919060200180518201929190505050826000908051906020019061005d929190610101565b508160019080519060200190610074929190610101565b50806002908051906020019061008b929190610101565b5033600460006101000a81548173ffffffffffffffffffffffffffffffffffffffff021916908373ffffffffffffffffffffffffffffffffffffffff1602179055507fea577228acd19cc1906a160fec699a9d01420f0839c902e6126392007df7f03860405160405180910390a15050506101a6565b828054600181600116156101000203166002900490600052602060002090601f016020900481019282601f1061014257805160ff1916838001178555610170565b82800160010185558215610170579182015b8281111561016f578251825591602001919060010190610154565b5b50905061017d9190610181565b5090565b6101a391905b8082111561019f576000816000905550600101610187565b5090565b90565b6109f9806101b56000396000f300608060405260043610610078576000357c0100000000000000000000000000000000000000000000000000000000900463ffffffff16806317d7de7c1461007d5780632df159ae1461010d5780638845ead51461019d578063a9a8679b1461022d578063abb6555a14610270578063fe9fbb80146102b3575b600080fd5b34801561008957600080fd5b5061009261030e565b6040518080602001828103825283818151815260200191508051906020019080838360005b838110156100d25780820151818401526020810190506100b7565b50505050905090810190601f1680156100ff5780820380516001836020036101000a031916815260200191505b509250505060405180910390f35b34801561011957600080fd5b50610122610471565b6040518080602001828103825283818151815260200191508051906020019080838360005b83811015610162578082015181840152602081019050610147565b50505050905090810190601f16801561018f5780820380516001836020036101000a031916815260200191505b509250505060405180910390f35b3480156101a957600080fd5b506101b26105d4565b6040518080602001828103825283818151815260200191508051906020019080838360005b838110156101f25780820151818401526020810190506101d7565b50505050905090810190601f16801561021f5780820380516001836020036101000a031916815260200191505b509250505060405180910390f35b34801561023957600080fd5b5061026e600480360381019080803573ffffffffffffffffffffffffffffffffffffffff169060200190929190505050610737565b005b34801561027c57600080fd5b506102b1600480360381019080803573ffffffffffffffffffffffffffffffffffffffff169060200190929190505050610857565b005b3480156102bf57600080fd5b506102f4600480360381019080803573ffffffffffffffffffffffffffffffffffffffff169060200190929190505050610977565b604051808215151515815260200191505060405180910390f35b6060600360003373ffffffffffffffffffffffffffffffffffffffff1673ffffffffffffffffffffffffffffffffffffffff16815260200190815260200160002060009054906101000a900460ff1615156103d1576040517f08c379a00000000000000000000000000000000000000000000000000000000081526004018080602001828103825260168152602001807f43616c6c6572206e6f7420617574686f72697a65642e0000000000000000000081525060200191505060405180910390fd5b60008054600181600116156101000203166002900480601f0160208091040260200160405190810160405280929190818152602001828054600181600116156101000203166002900480156104675780601f1061043c57610100808354040283529160200191610467565b820191906000526020600020905b81548152906001019060200180831161044a57829003601f168201915b5050505050905090565b6060600360003373ffffffffffffffffffffffffffffffffffffffff1673ffffffffffffffffffffffffffffffffffffffff16815260200190815260200160002060009054906101000a900460ff161515610534576040517f08c379a00000000000000000000000000000000000000000000000000000000081526004018080602001828103825260168152602001807f43616c6c6572206e6f7420617574686f72697a65642e0000000000000000000081525060200191505060405180910390fd5b60028054600181600116156101000203166002900480601f0160208091040260200160405190810160405280929190818152602001828054600181600116156101000203166002900480156105ca5780601f1061059f576101008083540402835291602001916105ca565b820191906000526020600020905b8154815290600101906020018083116105ad57829003601f168201915b5050505050905090565b6060600360003373ffffffffffffffffffffffffffffffffffffffff1673ffffffffffffffffffffffffffffffffffffffff16815260200190815260200160002060009054906101000a900460ff161515610697576040517f08c379a00000000000000000000000000000000000000000000000000000000081526004018080602001828103825260168152602001807f43616c6c6572206e6f7420617574686f72697a65642e0000000000000000000081525060200191505060405180910390fd5b60018054600181600116156101000203166002900480601f01602080910402602001604051908101604052809291908181526020018280546001816001161561010002031660029004801561072d5780601f106107025761010080835404028352916020019161072d565b820191906000526020600020905b81548152906001019060200180831161071057829003601f168201915b5050505050905090565b600460009054906101000a900473ffffffffffffffffffffffffffffffffffffffff1673ffffffffffffffffffffffffffffffffffffffff163373ffffffffffffffffffffffffffffffffffffffff161415156107fc576040517f08c379a00000000000000000000000000000000000000000000000000000000081526004018080602001828103825260168152602001807f43616c6c6572206e6f7420617574686f72697a65642e0000000000000000000081525060200191505060405180910390fd5b6001600360008373ffffffffffffffffffffffffffffffffffffffff1673ffffffffffffffffffffffffffffffffffffffff16815260200190815260200160002060006101000a81548160ff02191690831515021790555050565b600460009054906101000a900473ffffffffffffffffffffffffffffffffffffffff1673ffffffffffffffffffffffffffffffffffffffff163373ffffffffffffffffffffffffffffffffffffffff1614151561091c576040517f08c379a00000000000000000000000000000000000000000000000000000000081526004018080602001828103825260168152602001807f43616c6c6572206e6f7420617574686f72697a65642e0000000000000000000081525060200191505060405180910390fd5b6000600360008373ffffffffffffffffffffffffffffffffffffffff1673ffffffffffffffffffffffffffffffffffffffff16815260200190815260200160002060006101000a81548160ff02191690831515021790555050565b6000600360008373ffffffffffffffffffffffffffffffffffffffff1673ffffffffffffffffffffffffffffffffffffffff16815260200190815260200160002060009054906101000a900460ff1690509190505600a165627a7a723058209fb8154e9919962011b876ad38e83c7a26e760671210a2057181c38808988b4c0029",
  "source": "pragma solidity ^0.4.24;\r\n\r\ncontract Identity {\r\n    \r\n    string private name;\r\n    string private cui;\r\n    string private bornDate;\r\n    mapping(address => bool) private authorizedAccounts;\r\n    address private owner;\r\n\r\n    event identityCreatedEvent();\r\n\r\n    modifier onlyOwner {\r\n        require(msg.sender == owner, \"Caller not authorized.\");\r\n        _;\r\n    }\r\n    \r\n    constructor(string _name, string _cui, string _bornDate) public {\r\n        name = _name;\r\n        cui = _cui;\r\n        bornDate = _bornDate;\r\n        owner = msg.sender;\r\n        emit identityCreatedEvent();\r\n    }\r\n    \r\n    /// Only authorized addresses can call functions with this modifier.\r\n    modifier authorizedOnly() {\r\n        require(authorizedAccounts[msg.sender], \"Caller not authorized.\");\r\n        _;\r\n    }\r\n    \r\n    /// Getter for Identity name.\r\n    function getName() public view authorizedOnly returns (string) {\r\n        return name;\r\n    }\r\n    \r\n    /// Getter for Identity CUI.\r\n    function getCui() public view authorizedOnly returns(string) {\r\n        return cui;\r\n    }\r\n    \r\n    /// Getter for Identity born date.\r\n    function getBornDate() public view authorizedOnly returns(string) {\r\n        return bornDate;\r\n    }\r\n    \r\n    /// Give authorization to a contract to an address.\r\n    function authorizeAccount(address _newAddress) public onlyOwner {\r\n        authorizedAccounts[_newAddress] = true;\r\n    }\r\n\r\n    function isAuthorized(address _address) public view returns (bool) {\r\n        return authorizedAccounts[_address];\r\n    }\r\n\r\n    /// Give authorization to a contract to an address.\r\n    function deauthorizeAccount(address _newAddress) public onlyOwner {\r\n        authorizedAccounts[_newAddress] = false;\r\n    }\r\n}",
  "sourcePath": "D:\\Projects\\Ethereum\\hackathon\\contracts\\Identity.sol",
  "compiler": {
    "name": "solc",
    "version": "0.4.24+commit.e67f0147.Emscripten.clang"
  },
  "schemaVersion": "2.0.1",
  "updatedAt": "2018-09-22T22:42:45.689Z"
}