{
  "contractName": "Institution",
  "abi": [
    {
      "constant": false,
      "inputs": [
        {
          "name": "_name",
          "type": "string"
        }
      ],
      "name": "setName",
      "outputs": [],
      "payable": false,
      "stateMutability": "nonpayable",
      "type": "function"
    },
    {
      "constant": true,
      "inputs": [],
      "name": "getName",
      "outputs": [
        {
          "name": "",
          "type": "string"
        }
      ],
      "payable": false,
      "stateMutability": "view",
      "type": "function"
    },
    {
      "constant": false,
      "inputs": [
        {
          "name": "_institution",
          "type": "address"
        },
        {
          "name": "_name",
          "type": "string"
        },
        {
          "name": "_teacher",
          "type": "address"
        }
      ],
      "name": "createCourse",
      "outputs": [],
      "payable": false,
      "stateMutability": "nonpayable",
      "type": "function"
    }
  ],
  "bytecode": "0x608060405233600260006101000a81548173ffffffffffffffffffffffffffffffffffffffff021916908373ffffffffffffffffffffffffffffffffffffffff16021790555034801561005157600080fd5b50610dea806100616000396000f300608060405260043610610057576000357c0100000000000000000000000000000000000000000000000000000000900463ffffffff16806317d7de7c1461005c578063692aafdf146100ec578063c47f002714610195575b600080fd5b34801561006857600080fd5b506100716101fe565b6040518080602001828103825283818151815260200191508051906020019080838360005b838110156100b1578082015181840152602081019050610096565b50505050905090810190601f1680156100de5780820380516001836020036101000a031916815260200191505b509250505060405180910390f35b3480156100f857600080fd5b50610193600480360381019080803573ffffffffffffffffffffffffffffffffffffffff169060200190929190803590602001908201803590602001908080601f0160208091040260200160405190810160405280939291908181526020018383808284378201915050505050509192919290803573ffffffffffffffffffffffffffffffffffffffff1690602001909291905050506102a0565b005b3480156101a157600080fd5b506101fc600480360381019080803590602001908201803590602001908080601f01602080910402602001604051908101604052809392919081815260200183838082843782019150505050505091929192905050506104d2565b005b606060008054600181600116156101000203166002900480601f0160208091040260200160405190810160405280929190818152602001828054600181600116156101000203166002900480156102965780601f1061026b57610100808354040283529160200191610296565b820191906000526020600020905b81548152906001019060200180831161027957829003601f168201915b5050505050905090565b6000600260009054906101000a900473ffffffffffffffffffffffffffffffffffffffff1673ffffffffffffffffffffffffffffffffffffffff163373ffffffffffffffffffffffffffffffffffffffff16141515610367576040517f08c379a00000000000000000000000000000000000000000000000000000000081526004018080602001828103825260168152602001807f43616c6c6572206e6f7420617574686f72697a65642e0000000000000000000081525060200191505060405180910390fd5b8383836103726105b1565b808473ffffffffffffffffffffffffffffffffffffffff1673ffffffffffffffffffffffffffffffffffffffff168152602001806020018373ffffffffffffffffffffffffffffffffffffffff1673ffffffffffffffffffffffffffffffffffffffff168152602001828103825284818151815260200191508051906020019080838360005b838110156104135780820151818401526020810190506103f8565b50505050905090810190601f1680156104405780820380516001836020036101000a031916815260200191505b50945050505050604051809103906000f080158015610463573d6000803e3d6000fd5b50905060018190806001815401808255809150509060018203906000526020600020016000909192909190916101000a81548173ffffffffffffffffffffffffffffffffffffffff021916908373ffffffffffffffffffffffffffffffffffffffff1602179055505050505050565b600260009054906101000a900473ffffffffffffffffffffffffffffffffffffffff1673ffffffffffffffffffffffffffffffffffffffff163373ffffffffffffffffffffffffffffffffffffffff16141515610597576040517f08c379a00000000000000000000000000000000000000000000000000000000081526004018080602001828103825260168152602001807f43616c6c6572206e6f7420617574686f72697a65642e0000000000000000000081525060200191505060405180910390fd5b80600090805190602001906105ad9291906105c1565b5050565b6040516107588061066783390190565b828054600181600116156101000203166002900490600052602060002090601f016020900481019282601f1061060257805160ff1916838001178555610630565b82800160010185558215610630579182015b8281111561062f578251825591602001919060010190610614565b5b50905061063d9190610641565b5090565b61066391905b8082111561065f576000816000905550600101610647565b5090565b905600608060405234801561001057600080fd5b50604051610758380380610758833981018060405281019080805190602001909291908051820192919060200180519060200190929190505050600160009054906101000a900473ffffffffffffffffffffffffffffffffffffffff1673ffffffffffffffffffffffffffffffffffffffff163373ffffffffffffffffffffffffffffffffffffffff1614151561010f576040517f08c379a00000000000000000000000000000000000000000000000000000000081526004018080602001828103825260168152602001807f43616c6c6572206e6f7420617574686f72697a65642e0000000000000000000081525060200191505060405180910390fd5b816000908051906020019061012592919061016f565b5033600160006101000a81548173ffffffffffffffffffffffffffffffffffffffff021916908373ffffffffffffffffffffffffffffffffffffffff160217905550505050610214565b828054600181600116156101000203166002900490600052602060002090601f016020900481019282601f106101b057805160ff19168380011785556101de565b828001600101855582156101de579182015b828111156101dd5782518255916020019190600101906101c2565b5b5090506101eb91906101ef565b5090565b61021191905b8082111561020d5760008160009055506001016101f5565b5090565b90565b610535806102236000396000f300608060405260043610610057576000357c0100000000000000000000000000000000000000000000000000000000900463ffffffff16806317d7de7c1461005c5780634abf825d146100ec578063c47f0027146101b2575b600080fd5b34801561006857600080fd5b5061007161021b565b6040518080602001828103825283818151815260200191508051906020019080838360005b838110156100b1578082015181840152602081019050610096565b50505050905090810190601f1680156100de5780820380516001836020036101000a031916815260200191505b509250505060405180910390f35b3480156100f857600080fd5b50610137600480360381019080803573ffffffffffffffffffffffffffffffffffffffff169060200190929190803590602001909291905050506102bd565b6040518080602001828103825283818151815260200191508051906020019080838360005b8381101561017757808201518184015260208101905061015c565b50505050905090810190601f1680156101a45780820380516001836020036101000a031916815260200191505b509250505060405180910390f35b3480156101be57600080fd5b50610219600480360381019080803590602001908201803590602001908080601f0160208091040260200160405190810160405280939291908181526020018383808284378201915050505050509192919290505050610385565b005b606060008054600181600116156101000203166002900480601f0160208091040260200160405190810160405280929190818152602001828054600181600116156101000203166002900480156102b35780601f10610288576101008083540402835291602001916102b3565b820191906000526020600020905b81548152906001019060200180831161029657829003601f168201915b5050505050905090565b6002602052816000526040600020818154811015156102d857fe5b90600052602060002001600091509150508054600181600116156101000203166002900480601f01602080910402602001604051908101604052809291908181526020018280546001816001161561010002031660029004801561037d5780601f106103525761010080835404028352916020019161037d565b820191906000526020600020905b81548152906001019060200180831161036057829003601f168201915b505050505081565b600160009054906101000a900473ffffffffffffffffffffffffffffffffffffffff1673ffffffffffffffffffffffffffffffffffffffff163373ffffffffffffffffffffffffffffffffffffffff1614151561044a576040517f08c379a00000000000000000000000000000000000000000000000000000000081526004018080602001828103825260168152602001807f43616c6c6572206e6f7420617574686f72697a65642e0000000000000000000081525060200191505060405180910390fd5b8060009080519060200190610460929190610464565b5050565b828054600181600116156101000203166002900490600052602060002090601f016020900481019282601f106104a557805160ff19168380011785556104d3565b828001600101855582156104d3579182015b828111156104d25782518255916020019190600101906104b7565b5b5090506104e091906104e4565b5090565b61050691905b808211156105025760008160009055506001016104ea565b5090565b905600a165627a7a723058204f114810717463eb7ba1df285481b1af4c989d81798873b1dbc8cf1fba94c8990029a165627a7a72305820f901e15090c975af08750d1268055280a7f7ff4e926e6e1cbfecaf8b0fecfe7e0029",
  "source": "pragma solidity ^0.4.24;\r\n\r\nimport \"./Course.sol\";\r\n\r\ncontract Institution {\r\n    \r\n    string Name;\r\n    address[] Courses;\r\n    address private owner = msg.sender;\r\n\r\n    modifier onlyOwner {\r\n        require(msg.sender == owner, \"Caller not authorized.\");\r\n        _;\r\n    }\r\n    \r\n    /// Setter for name\r\n    function setName(string _name) public onlyOwner {\r\n        Name = _name;\r\n    }\r\n    \r\n   /// Getter for name\r\n    function getName() public view returns(string) {\r\n        return Name;\r\n    }\r\n    \r\n    /// Create Course\r\n    /// leer addresses de tokens que queremos\r\n    function createCourse(address _institution, string _name, address _teacher) public onlyOwner {\r\n        address newCourse = new Course( _institution, _name, _teacher);\r\n        Courses.push(newCourse);\r\n    }\r\n\r\n}",
  "sourcePath": "D:\\Projects\\Ethereum\\hackathon\\contracts\\Institution.sol",
  "compiler": {
    "name": "solc",
    "version": "0.4.24+commit.e67f0147.Emscripten.clang"
  },
  "schemaVersion": "2.0.1",
  "updatedAt": "2018-09-22T21:57:18.777Z"
}